:020000040000FA
:100000004EEF00F0F76A140FF66E000EF7220900AB
:10001000F550120007001300EA6A200EE96EEF5057
:100020000DE0060E016E006A002EFED7012EFBD7F2
:100030007B0E006E002EFED7EF2EF3D7000C06507D
:100040000A0802E0000E01D0010E1F6E3E0E0C6E7B
:10005000000E0D6E07861F52D8B4B1EF00F0079660
:1000600093928A92140E206ED7DF93928A82066A48
:100070003E0E0C6E000E0D6EB0EF00F0000C939073
:100080008A90140E206EC8DF93908A80062A7E0E16
:10009000186E000E196EB0EF00F0000CF86AD09EDA
:1000A000EA6AE96A810EAF6EA60EAC6E900EAB6E78
:1000B000C180C182C184C196066A076A096A0A0EB4
:1000C000086E0B6A0A6A0E6A0F6A3E0E0C6E000E0C
:1000D0000D6E136A156A0A0E146E176A010E166EFB
:1000E0001A6A1B6A7E0E186E000E196E056A820E61
:1000F000D56E0B0ED76EDC0ED66EF294820ED56ED8
:100100000B0ED76EDC0ED66EF294D8900534006ECE
:1001100079DF026E010E002475DFEA6E02C0E9FF8E
:10012000EFCF02F0E92AEFCF00F0ECCF01F0EC2A9C
:10013000EFCF03F002E1EC2AED52EC50015C11E14B
:100140000050035C0EE1ED52ED52EE6AEE6A02BE23
:1001500008D0EC52ECCFFAFFED52EFCFE8FFF96E8A
:100160000001052A020E055CD0E1056AD650D7CF02
:0E01700003F0F2B4C5D7FAD7FF0E056E0300F8
:020000040030CA
:0E00000000220E0E000181000FC00FE00F4025
:00000001FF
;PIC18F452
