:020000040000FA
:10000000FCEF00F0F76A140FF66E000EF7220900FD
:10001000F5501200636F756E742069733A2025697C
:100020000A0D0000F76A340FF66E000EF722090081
:10003000F5501200060012001E6A1E2A1B0E19241B
:10004000E96EEA6AD8B0EA2A1928006E030801E1CD
:10005000006A1A50005C02E1000E05D000C019F0E1
:100060001EC0EFFF010E720E0B6E000E0C6E5DEFE8
:1000700001F0E3D7380E0B6E000E0C6E5DEF01F051
:10008000000C2850016A275C03E227C000F00CD066
:10009000006A080E296E273600362850005CD8B05A
:1000A000006E0136292EF7D7000C200E22A8300E44
:1000B000236E21C000F021AE07D0001E002A00C030
:1000C00021F02D0E236E228E015021C027F0640EE8
:1000D000286ED7DF00C021F0300E0124246E21C02D
:1000E00027F00A0E286ECDDF300E0024266E300E6B
:1000F0000124256E23C000F022A602D022AE229455
:1001000022B80BD022AE22D022B420D000C024F0DE
:1001100022B21CD000C025F019D0300E245C16E1AC
:1001200000C024F0200E236E22A604D02294228246
:1001300022AE2292300E255C09E100C025F0200E8F
:10014000246E22A6F7D7229222AE229022A404D0B7
:1001500023509EA8FED7AD6E22A204D024509EA8A4
:10016000FED7AD6E22A004D025509EA8FED7AD6E5E
:1001700026509EA8FED7AD6EEDEF00F01A50195C28
:1001800003E31A50195C04D0030ED8801A541924C2
:10019000000A2BE01A50195CFDE01B0E1A24E96ED0
:1001A000EA6AD8B0EA2AEFCF01F01A2A1A500308F7
:1001B00001E11A6A01C01FF0206A205023DF202AC3
:1001C000006E00509EA8FED7AD6E0A0E205CF5E1D1
:1001D0001FC021F01F0E226E68D70A0E9EA8FED700
:1001E000AD6E0D0E9EA8FED7AD6E7C0E176E010E85
:1001F000186E5DEF01F0000CF86AD09EEA6AE96AB9
:10020000810EAF6EA60EAC6E900EAB6EC180C18239
:10021000C184C196066A086A280E076E0A6A096ACE
:100220000D6A0E6A380E0B6E000E0C6E126A146A9E
:10023000C80E136E166A010E156E196A1A6A7C0EC4
:10024000176E010E186E056A820ED56E0B0ED76EF4
:10025000DC0ED66EF294820ED56E0B0ED76EDC0ECF
:10026000D66EF294D8900534006EDCDE026E010E7C
:100270000024D8DEEA6E02C0E9FFEFCF02F0E92ADF
:10028000EFCF00F0ECCF01F0EC2AEFCF03F002E16A
:10029000EC2AED52EC50015C11E10050035C0EE1E0
:1002A000ED52ED52EE6AEE6A02BE08D0EC52ECCF8F
:1002B000FAFFED52EFCFE8FFF96E0001052A020EBA
:1002C000055CD0E1056AD650D7CF03F0F2B4C5D7AC
:0802D000FAD7FF0E056E0300D2
:020000040030CA
:0E00000000220E0E000181000FC00FE00F4025
:00000001FF
;PIC18F452
