:020000040000FA
:0600000016EF0BF01200E8
:020006001200E6
:060008005DEF03F01200A1
:02000E00C250DE
:08001000020B01E0010E1200D9
:060018004AEF03F01200A4
:02001E000100DF
:0C00200094160000600000001F000000AB
:04002C000A0EE66E64
:1000300024EC0BF0E5521200E10EE66E06EC0BF03C
:10004000E55212004B0EE66E06EC0BF0E552120084
:10005000D9CFE6FFE1CFD9FF0F0E8316F00E951230
:100060009694969096928D948D908D92E5DF0F0EDA
:1000700095168316838A8D82D9DF8D92E3DF0F0E6A
:100080008316838A8D82D2DF8D92DCDF0F0E83167A
:10009000838A8D82CBDF8D92F00E951257D800099E
:1000A00001E0FCD7FE0EDBCFE6FF2DD8E5524ED89F
:1000B000000901E0FCD7080EE66E25D8E55246D8C7
:1000C000000901E0FCD70F0EE66E1DD8E5523ED8C0
:1000D000000901E0FCD7010EE66E15D8E55236D8CE
:1000E000000901E0FCD7130EE66E0DD8E5522ED8BC
:1000F000000901E0FCD7E66AC9D8E55200D0E55214
:10010000E7CFD9FF1200D9CFE6FFE1CFD9FF0F0E1D
:1001100095168316FE0EDB50F00B83128D948D9096
:1001200085DF8D8283DF8D920F0E8316FE0EDB3806
:10013000F00BF00B83127ADF8D8278DF8D92F00E58
:10014000951200D0E552E7CFD9FF12008D848D9033
:100150006DDF8D826BDF83AE09D08D9267DF8D827C
:1001600065DF8D928D94010E09D008D08D925EDFEF
:100170008D825CDF8D928D94000E00D01200D9CF5D
:10018000E6FFE1CFD9FFFD0EDBCFE9FFFE0EDBCFAF
:10019000EAFFEF5014E0DADF000901E0FCD7FD0EC2
:1001A000DBCFE9FFFE0EDBCFEAFFEF50E66E92D821
:1001B000E552FD0EDB2AFE0E01E3DB2AE4D700D078
:1001C000E552E7CFD9FF1200D9CFE6FFE1CFD9FF43
:1001D000E6528D848D902ADF8D8228DFF00E831405
:1001E000DF6E8D9223DF8D8221DF83380F0B0F0BA3
:1001F000DF128D928D947F0EDF1400D0E552E55210
:10020000E7CFD9FF1200D9CFE6FFE1CFD9FFE65201
:100210008D848D800BDF8D8209DFF00E8314DF6EFD
:100220008D9204DF8D8202DF83380F0B0F0BDF12FC
:100230008D928D908D94DF5000D0E552E552E7CF3E
:10024000D9FF1200D9CFE6FFE1CFD9FF0F0E9516E7
:100250008316FE0EDB504009F00B83128D948D90B7
:10026000E5DE8D82E3DE8D920F0E8316FE0EDB3807
:10027000F00BF00B8312DADE8D82D8DE8D92F00E59
:10028000951200D0E552E7CFD9FF1200D9CFE6FF93
:10029000E1CFD9FF0F0E95168316FE0EDB508009B5
:1002A000F00B83128D948D90C1DE8D82BFDE8D9216
:1002B0000F0E8316FE0EDB38F00BF00B8312B6DE4A
:1002C0008D82B4DE8D92F00E951200D0E552E7CF0C
:1002D000D9FF1200D9CFE6FFE1CFD9FF0F0E951657
:1002E0008316FE0EDB50F00B83128D808D949EDE04
:1002F0008D829CDE8D920F0E8316FE0EDB38F00B86
:10030000F00B831293DE8D8291DE8D92F00E9512AA
:1003100000D0E552E7CFD9FF1200D9CFE6FFE1CFF9
:10032000D9FFFD0EDBCFF6FFFE0EDBCFF7FF080097
:10033000F55015E00BDF000901E0FCD7FD0EDBCF27
:10034000F6FFFE0EDBCFF7FF0800F550E66EC2DFCA
:10035000E552FD0EDB2AFE0E01E3DB2AE2D700D0D8
:10036000E552E7CFD9FF1200D9CFE6FFE1CFD9FFA1
:10037000E6529390DF6A080EDF5C18E28192FE0E6F
:10038000DBA002D0818001D08190DB407F0BE76E43
:10039000FE0EE7CFDBFF020EE66E7FD8E5528182CC
:1003A000020EE66E7AD8E552DF2AE5D7E552E5522D
:1003B000E7CFD9FF1200D9CFE6FFE1CFD9FF030E77
:1003C000E126010EDB6AF36E020EF3CFDBFF9380B2
:1003D000DF6A080EDF5C22E28192010EE66E5DD8D4
:1003E000E55281A00BD0020EDBCFE6FF010EDB5001
:1003F000E552E710E76E010EE7CFDBFF020EDB50A0
:10040000020D020EF3CFDBFFE66E47D8E552818284
:10041000020EE66E42D8E552DF2ADBD7010EDB5032
:10042000106E030EE15C03E200D0E16AE552E16E7A
:100430001050E552E7CFD9FF1200D9CFE6FFE1CF48
:10044000D9FFE65280888192BF0EE66E8DDFE552BD
:10045000B2DF0001846FAFDF0001836FACDF00010A
:10046000826FA9DF0001816FA6DF0001806FA3DF2B
:10047000DF6EA1DF00017F6F9EDFDF6E8192020ED3
:10048000E66E0BD8E55280980A0EE66E06D8E55265
:10049000E552E552E7CFD9FF1200D9CFE6FFE1CF11
:1004A000D9FF020EE126DE6ADD6ADE6ADD6ADECF92
:1004B00010F0DDCF11F0FE0EDB50126E136A1050FB
:1004C000125C1150135805E3DF2A010E01E3DB2A09
:1004D000EED7020EE15C02E2E16AE552E16EE5521E
:1004E000E7CFD9FF120038D88088040EE66ED5DF3A
:1004F000E5527F0E00018415846FBE0EE66E34DF78
:10050000E55284C0E6FF30DFE55283C0E6FF2CDF12
:10051000E55282C0E6FF28DFE55281C0E6FF24DF16
:10052000E55280C0E6FF20DFE552010EE66E1CDFDB
:10053000E5527FC0E6FF18DFE552E66A15DFE552B7
:100540008192040EE66EA9DFE5528098040EE66EF5
:10055000A4DFE552F6EF02F08088040EE66E9DDF20
:10056000E5528E0EE66E00DFE552E66AFDDEE552EC
:100570008192040EE66E91DFE5528098040EE66EDD
:100580008CDFE5521200D9CFE6FFE1CFD9FF030E91
:10059000E126FE0EDB50E76E020EE7CFDBFFFE0E1C
:1005A000DB380F0BF36EFE0EF3CFDBFFDB50E76E95
:1005B000010EE7CFDBFFDB500F0BDF6E300EDF24C9
:1005C000E66E88DEE552020EDB500F0BDF6E300E5A
:1005D000DF24E66E7FDEE552030EE15C02E2E16AB3
:1005E000E552E16EE552E7CFD9FF12008088040E94
:1005F000E66E53DFE5528E0EE66EB6DEE552800EF5
:10060000E66EB2DEE5528192040EE66E46DFE552FA
:100610008098040EE66E41DFE5521200D9CFE6FF66
:10062000E1CFD9FF020EE1268088040EE66E35DFA9
:10063000E552800EE66E98DEE552E66A95DEE552FA
:100640008192040EE66E29DFE5528098040EE66E74
:1006500024DFE552DE6ADD6AD9CFE9FFDACFEAFFAF
:10066000050ED880EE54000EED540AE3FA0EE66E45
:10067000D8EC0AF0E552DF2A010E01E3DB2AECD7C1
:10068000020EE15C02E2E16AE552E16EE552E7CF7B
:10069000D9FF1200D8CFE4FFE0CFE4FFE46EDACF59
:1006A000E4FFE2CFDAFFE652E552E5CFDAFFE550AC
:1006B000E5CFE0FFE5CFD8FF1000DACFE4FFE2CFCF
:1006C000DAFFE9CFE4FFEACFE4FFF6CFE4FFF7CFAC
:1006D000E4FFF5CFE4FFF3CFE4FFF4CFE4FFFACF7C
:1006E000E4FF00EE00F0100EE80403E3EECFE4FFB9
:1006F000FBD700EE10F0040EE80403E3EECFE4FFB6
:10070000FBD7E6529EAA11D09E9A48EC0AF04C08FC
:1007100004E10001010E616FC7DA48EC0AF06C08D1
:1007200004E10001010E616FBFDAE55200EE13F043
:10073000040EE80403E3E5CFEDFFFBD700EE0FF076
:10074000100EE80403E3E5CFEDFFFBD7E5CFFAFF9A
:10075000E5CFF4FFE5CFF3FFE5CFF5FFE5CFF7FFFA
:10076000E5CFF6FFE5CFEAFFE5CFE9FFE5CFDAFF1A
:1007700011009480948293929298956A966A8098D8
:100780008192EADE4BDF0001120E7F6F100E806F48
:10079000310E816F150E826F590E836F500E846F6C
:1007A000A2DE0E0EE66E040EE66EAF0EE66E87EC6F
:1007B00009F0E552E552E552810EE66EE66A7C0EDE
:1007C000E66ED3EC08F0E552E552E552948C948E37
:1007D0009E9A9F8AD08EF28CF28E2B0EE66E38DCBB
:1007E000E552010EE66E8FDCE5520C0EE66E8BDCF8
:1007F000E5520A0EE66ED8EC0AF0E5529480948237
:1008000093929298956A966AFA0EE66E24EC0BF033
:10081000E55248EC0BF007EC00F0000901E0FBD7D3
:100820002FEC0BF0F3CF70F0F4CF71F0720EE66E98
:10083000000EE66E70C0E6FF71C0E6FF99EC07F0AF
:10084000E552E552E552E552F8DD800EE66E5BDCDE
:10085000E552A80EE66E150EE66E5FDDE552E55236
:1008600082C0E6FF90DEE5523A0EE66E33DDE552D9
:1008700083C0E6FF88DEE5523A0EE66E2BDDE552D8
:1008800084C0E6FF80DEE552020EE66E06DEE5522B
:10089000C00EE66E38DCE55281C0E6FF74DEE5523C
:1008A0002F0EE66E17DDE55280C0E6FF6CDEE552E6
:1008B0002F0EE66E0FDDE5527FC0E6FF64DEE552E7
:1008C00070C006F071C007F0086A096A07AE02D06E
:1008D00008680968880E0B6E130E0C6E0D6A0E6A9E
:1008E00018EC09F002C006F003C007F004C008F0DD
:1008F00005C009F00B68030E0C6E0D6A0E6ABEECA3
:1009000009F006C085F007C086F008C087F085C0F2
:1009100010F086C011F087C012F0E80E0C6E030EC6
:100920000D6E0E6A10C007F011C008F012C009F079
:1009300085EC0AF007C010F008C011F009C012F0F1
:10094000300E1026000E1122122210C064F0E80EA4
:100950000C6E030E0D6E0E6A85C007F086C008F09F
:1009600087C009F085EC0AF003C085F004C086F06A
:1009700005C087F085C010F086C011F087C012F066
:10098000640E0C6E0D6A0E6A10C007F011C008F0FC
:1009900012C009F085EC0AF007C010F008C011F091
:1009A00009C012F0300E1026000E1122122210C0C3
:1009B00065F0640E0C6E0D6A0E6A85C007F086C085
:1009C00008F087C009F085EC0AF003C085F004C088
:1009D00086F005C087F085C010F086C011F087C092
:1009E00012F00A0E0C6E0D6A0E6A10C007F011C0EC
:1009F00008F012C009F085EC0AF007C010F008C03A
:100A000011F009C012F0300E1026000E1122122231
:100A100010C066F085C010F086C011F087C012F0DB
:100A20000A0E0C6E0D6A0E6A10C007F011C008F0B5
:100A300012C009F085EC0AF003C010F004C011F0F8
:100A400005C012F0300E1026000E1122122210C026
:100A500068F0020EE66E21DDE552540EE66E3ADCD9
:100A6000E5523D0EE66E36DCE552640EE66E000E93
:100A7000E66EBFEC00F0E552E552DF0EE66E2ADCD2
:100A8000E552430EE66E26DCE552FA0EE66ED8EC31
:100A90000AF0E552010EE66E83EC00F0E55282B0FA
:100AA00019D084C0E6FF83C0E6FF82C0E6FF81C0A4
:100AB000E6FF80C0E6FF7FC0E6FF74C0E6FF73C0BC
:100AC000E6FF0CD8106E080EE15E105000017D2B81
:100AD000000E7E2382B200D091D61200D9CFE6FF5D
:100AE000E1CFD9FF0A0EE126DE6ADD6A800EE66EEE
:100AF000080EE66EA2EC0AF0E552E5520B0EC86E47
:100B0000FE0EDB50E76E020EE7CFDBFFFD0EDB5083
:100B1000E76E030EE7CFDBFFFC0EDB50E76E040E43
:100B2000E7CFDBFFFB0EDB50E76E050EE7CFDBFF09
:100B3000FA0EDB50E76E060EE7CFDBFFF90EDB5057
:100B4000E76E070EE7CFDBFFF80EDB50E76E080E0F
:100B5000E7CFDBFFF70EDB50E76E090EE7CFDBFFD9
:100B6000020EDBCF88F0030EDBCF89F00001F70E19
:100B7000D8806255000E635502E2626B636BDE6AD9
:100B8000DD6ADECF10F0DDCF11F0D890115004E611
:100B9000080E105C000E115824E2D950020F106E9E
:100BA000DACF11F0DE501024E96EDD501120EA6E2C
:100BB000EF50E66E62C0E6FFA00EE66E50EC09F064
:100BC000E552E552E5520A0EE66ED8EC0AF0E5521F
:100BD0000001622B000E6323DF2A010E01E3DB2AF2
:100BE000D0D746EC0BF0939292980A0EE15C02E2A9
:100BF000E16AE552E16EE552E7CFD9FF1200D9CFA5
:100C0000E6FFE1CFD9FF020EE126DE6ADD6AE66A81
:100C1000080EE66EA2EC0AF0E552E5520B0EC86E25
:100C2000DE6ADD6ADECF10F0DDCF11F0D890115012
:100C300004E6080E105C000E115823E262C0E6FFC5
:100C4000A00EE66E33EC08F0E552E552F350E66E86
:100C5000DECFE9FFDDCFEAFF750EE926000EEA22BE
:100C6000E552E750EF6E0A0EE66ED8EC0AF0E55258
:100C700000016207000E635BDF2A010E01E3DB2A3D
:100C8000D1D746EC0BF0C80EE66ED8EC0AF0E55270
:100C900093929298020EE15C02E2E16AE552E16E03
:100CA000E552E7CFD9FF1200D9CFE6FFE1CFD9FF58
:100CB000040EE126DE6ADD6A020EDB6A030EDB6AE1
:100CC0000001615101E1EED0616BDE6ADD6ADECFC9
:100CD00010F0DDCF11F0000111507E19E8AE02D006
:100CE0007E3504D07D51105C7E51115801E3DAD07D
:100CF00086DF8B0E106E150E116E126A10C0E6FFA5
:100D000011C0E6FF12C0E6FFF2EC09F0E552E55231
:100D1000E552ACA2FED774C0E6FFD2D8E55275C04A
:100D2000E6FFCED8E552880E106E150E116E126ACF
:100D300010C0E6FF11C0E6FF12C0E6FFF2EC09F0BA
:100D4000E552E552E552ACA2FED7850E106E150EA7
:100D5000116E126A10C0E6FF11C0E6FF12C0E6FF76
:100D6000F2EC09F0E552E552E552ACA2FED778C0AC
:100D7000E6FFA6D8E552830E106E150E116E126AAC
:100D800010C0E6FF11C0E6FF12C0E6FFF2EC09F06A
:100D9000E552E552E552ACA2FED777C0E6FF90D807
:100DA000E552830E106E150E116E126A10C0E6FF2A
:100DB00011C0E6FF12C0E6FFF2EC09F0E552E55281
:100DC000E552ACA2FED776C0E6FF7AD8E5527F0E98
:100DD000106E150E116E126A10C0E6FF11C0E6FF0C
:100DE00012C0E6FFF2EC09F0E552E552E552ACA282
:100DF000FED779C0E6FF64D8E5527D0E106E150E61
:100E0000116E126A10C0E6FF11C0E6FF12C0E6FFC5
:100E1000F2EC09F0E552E552E552ACA2FED77AC0F9
:100E2000E6FF4ED8E5527D0E106E150E116E126A59
:100E300010C0E6FF11C0E6FF12C0E6FFF2EC09F0B9
:100E4000E552E552E552ACA2FED77BC0E6FF38D8AA
:100E5000E5527A0E106E150E116E126A10C0E6FF82
:100E600011C0E6FF12C0E6FFF2EC09F0E552E552D0
:100E7000E552ACA2FED77A0E106E150E116E126AF4
:100E800010C0E6FF11C0E6FF12C0E6FFF2EC09F069
:100E9000E552E552E552ACA2FED7DF2A010E01E38E
:100EA000DB2A15D77D6B7E6B626B636B040EE15C96
:100EB00002E2E16AE552E16EE552E7CFD9FF1200A6
:100EC000D9CFE6FFE1CFD9FF030EE126FE0EDB50BE
:100ED000E76E020EE7CFDBFFFE0EDB380F0BF36E83
:100EE000FE0EF3CFDBFFDB50E76E010EE7CFDBFF3B
:100EF000DB500F0BDF6E300EDF24E66EEFEC0AF0F6
:100F0000E552ACA2FED7020EDB500F0BDF6E300EA7
:100F1000DF24E66EEFEC0AF0E552ACA2FED7030E3A
:100F2000E15C02E2E16AE552E16EE552E7CFD9FF0A
:020F30001200AD
:0E0F3200D9CFE6FFDACFE6FFFA0EE3CFD9FF04
:100F4000FB0EE3CFDAFFFD0EE35209E72D0EDE6E56
:100F5000FC0EE31EE32AFD0ED8B4E306E31EE652C0
:100F6000E652E652FD0EE124E76EFF0EE220E46E4B
:100F7000E652F70EE3CFE6FFF70EE3CFE6FF09EC0C
:100F800008F0F90EE124E96EFF0EE220EA6EF9ECBA
:100F900007F00AE1F6EC07F009E1F9EC07F008E1E7
:100FA000F6EC07F007E108D004EC08F0FFEC07F0DE
:100FB00004EC08F0FFEC07F004EC08F0DE6AF90E30
:100FC000E126FF0EE222FF0EE3CFDAFFE552FF0E2D
:100FD000E3CFD9FFE552FC0EE124E96EFF0EE220DB
:100FE000EA6EEECFF3FFEFCFF4FF1200EF380F0BF6
:100FF0001200EF500F0B02E1EE52D8841200EF38CE
:101000000F0B300FDE6E1200EE500F0B300FDE6E46
:101010001200FC0EE3CFE9FFFD0EE3CFEAFF100E56
:10102000E66EEE6AEE6AEF6AD890FD0EE336FE0ECB
:10103000E336ED36ED36EF36FF0EE30609E02AEC37
:1010400008F0EE522AEC08F0EE522AEC08F0EDD748
:10105000E56E1200030EEF24E8B6EF6E300EEF24BB
:06106000E8BEEF6E000C7B
:0A106600D9CFE6FFDACFE6FFE1CFB5
:10107000D9FFE2CFDAFF38EC0BF0C580C5B0FED760
:10108000A1B628D0FD0E39D814E1C5BC25D0FC0E80
:1010900034D80FE1C5BC20D0C582C5B2FED7A1B6F9
:1010A00019D0FD0EDB28E66E67EC0AF0E552000968
:1010B00003E0C584FD0E12D0C5BC0ED0C586C5B6F2
:1010C000FED7C58AC588C5B8FED7C584C5B4FED7C6
:1010D000A1A607D0F36803D0C584FE0EF36EF468B2
:1010E00006D0C950106E116AF36E11C0F4FFE552BC
:1010F000E5CFDAFFE7CFD9FF1200DBCFE6FF67ECE1
:081100000AF0E552000912009B
:081108001E0EF66E000EF76EDC
:10111000000EF86E00010900F5508F6F0900F550C0
:10112000906F03E18F6701D03DD00900F5508A6FC1
:101130000900F5508B6F0900F5508C6F090009000C
:10114000F550E96E0900F550EA6E09000900090042
:10115000F5508D6F0900F5508E6F09000900F6CF2C
:1011600091F0F7CF92F0F8CF93F08AC0F6FF8BC0E2
:10117000F7FF8CC0F8FF00018D5302E18E5307E0AA
:101180000900F550EE6E8D07F8E28E07F9D791C091
:10119000F6FF92C0F7FF93C0F8FF00018F07000E23
:0611A000905BBFD71200B6
:0A11A600D9CFE6FFDACFE6FFE1CF74
:1011B000D9FFE2CFDAFFAC6AAB6AFD0EDBB0AC88D8
:1011C000DBA202D0AC8CAB8CDBB4AC8EDBA602D045
:1011D000AB8801D0AB8ADBB8AC849E98DBBAAB8617
:1011E000DBAC02D09D8A01D09D9A9E9ADBAE02D0E4
:1011F0009D8801D09D98FB0EDB50AF6EFB0EFC0E60
:10120000DBCF11F011C010F0116A1050B06EAC8A33
:10121000AB8E949C948EAC50100B04E0AC50800BC1
:1012200001E1948CE552E5CFDAFFE7CFD9FF120058
:1012300006500B02F3CF02F0F4CF03F00C02F35090
:101240000326000EF420046E06500D02F35004260F
:10125000000EF420056E06500E02F35005260750CE
:101260000B02F3500326F4500422000E052207500F
:101270000C02F3500426F450052207500D02F350DF
:10128000052608500B02F3500426F450052208509E
:101290000C02F350052609500B02F35005261200EC
:1012A000D9CFE6FFDACFE6FFE1CFD9FFE2CFDAFF11
:1012B00038EC0BF0C580C5B0FED7A1B618D0FD0E36
:1012C0001FD80AE1C5BC0BD0FC0E1AD805E1C5BC7D
:1012D00006D0FB0E15D806E0C584FD0E0BD0C584E4
:1012E000FE0E08D0C584C5B4FED7A1A602D0FF0E5D
:1012F00001D0000EE552E5CFDAFFE7CFD9FF1200AB
:0E130000DBCFE6FF67EC0AF0E55200091200B1
:02130E00D9CF35
:10131000E6FFDACFE6FFE1CFD9FFE2CFDAFFC26A1C
:10132000C06AFC0EDB407F0B3C0BC26EFB0EDBCFBA
:10133000E6FFFC0EDB38F00B300BE552E710C16E18
:10134000FD0EDB50040DF350380B116EFD0EDB3833
:101350000F0B070B106EFD0EDB50800B10101110E1
:10136000C06EFC0EDBAE03D09E9C9D8CF28CC280C6
:0C137000E552E5CFDAFFE7CFD9FF12000D
:04137C00006AE86AB1
:101380000EAECBEF09F00B6C0C1E0D1E0E1E0C22C8
:101390000D220E22001E09AED6EF09F0066C071EC4
:1013A000081E091E072208220922001E24EC0AF04A
:1013B00009BEEDEF09F000AE000C066C071E081E1A
:1013C000091EE86A072208220922026C031E041E75
:1013D000051E032204220522000C00BEDDEF09F0E9
:0413E0000188FF0C75
:0C13E400D9CFE6FFDACFE6FFE1CFD9FF5A
:1013F000E2CFDAFFACA2FED7FB0EDBCFF6FFFC0E8E
:10140000DBCFF7FFFD0EDBCFF8FF0800F550E66EEF
:10141000EFEC0AF0E552D950FB0FE96EFF0EDA202F
:10142000EA6EEFCFF6FFEE2AEFCFF7FF000EEE22C7
:10143000EFCFF8FFEE220800F550DCE1E552E5CFF2
:08144000DAFFE7CFD9FF12002B
:08144800056A046A036A026AE6
:10145000200EE76ED8900636073608360936023673
:101460000336043605360B50025C0C5003580D5001
:1014700004580E50055809E30B50025E0C50035AF5
:101480000D50045A0E50055A062AE72EE4D71200D2
:10149000D9CFE6FFDACFE6FFE1CFD9FFE2CFDAFF1F
:1014A000E652F20E00019417ABAC03D09491ABB0AE
:1014B0009481ABB49485ABB29487AE50DF6EDF50AD
:0E14C000E552E552E5CFDAFFE7CFD9FF120083
:0214CE00D9CF74
:1014D000E6FFDACFE6FFE1CFD9FFE2CFDAFFFD0E7C
:1014E000DB50C96EC6AE02D0FF0E09D0C7B0FED722
:1014F00038EC0BF0C5AC02D0FE0E01D0000EE55268
:0A150000E5CFDAFFE7CFD9FF1200B4
:06150A00056A046A036A91
:10151000180EE76ED89007360836093603360436BB
:1015200005360C50035C0D5004580E50055807E367
:101530000C50035E0D50045A0E50055A072AE72E30
:04154000EAD71200D4
:0C154400D9CFE6FFDACFE6FFE1CFD9FFF8
:10155000E2CFDAFF3F0EC716C66AC56AFD0EDB5042
:10156000C612FC0EDB50C71293829380C68AE552E6
:0A157000E5CFDAFFE7CFD9FF120044
:06157A000A0D002F002005
:101580002D20003A002C200043200054454D5020CF
:101590002C2048483A4D4D3A5353202D2044442F97
:0F15A0004D4D2F41410D0A00484F52413A200056
:1015B000FF0EE350156EEF0E01D0F30EE76EE72E2F
:1015C000DFEF0AF00C0E146EE76AE72EE5EF0AF083
:0E15D000142EE4EF0AF0152EDDEF0AF01200E3
:0215DE00D9CF63
:1015E000E6FFDACFE6FFE1CFD9FFE2CFDAFFACAC1E
:1015F00004D0AC90000194B3AC80FD0EDB50AD6E16
:0C160000E552E5CFDAFFE7CFD9FF12007A
:04160C00FF0EE3509A
:10161000156E480E01D04C0EE76EE72EFED7E76A36
:0C162000E72EFED7152EF7D700001200B1
:04162C0013EE00F0C9
:1016300023EE00F0F86A019C84EC08F003EC00F063
:08164000B9EC03F0FBD7120026
:08164800FF0EE350E84E120012
:0E165000000000D000D000D0E82EFAD7120023
:02165E00C45076
:10166000136E126AC3501210F36E13C0F4FF12000F
:0E1670001F0EC514FDE1C750040BFAE1120075
:02167E0000EE7C
:0C16800000F00F0EEE6AEA62FDD71200C7
:04168C00C69A1200E8
:04169000C282120000
:0C169400000000003030302C30003030FE
:1016A000302C30000000303000000000000000004E
:0316B00000000037
:020000040030CA
:0100000004FB
:010001000CF2
:010003001EDE
:010005008179
:0100060001F8
:00000001FF
