:020000040000FA
:1000000089EF00F0F76A140FF66E000EF722090070
:10001000F55012005461736B20310A0D0000F76A2D
:100020002E0FF66E000EF7220900F55012005461F3
:10003000736B20320A0D0000F76A480FF66E000E4F
:10004000F7220900F55012005461736B20330A0D3A
:100050000000F76A620FF66E000EF7220900F550F5
:10006000120007000E001500F76A780FF66E000EFA
:10007000F7220900F550120052544F532068617363
:10008000206265656E207465726D696E6174656469
:100090000A0D00001D6A1D50B5DF1D2A006E0050BC
:1000A0009EA8FED7AD6E080E1D5CF5E1062A06502F
:1000B000050802E1FEEF00F0940E0C6E000E0D6ECE
:1000C000F2EF00F0000C1E6A1E50A9DF1E2A006E1F
:1000D00000509EA8FED7AD6E080E1E5CF5E1C60E60
:1000E000136E000E146EF2EF00F0000C1F6A1F502A
:1000F000A3DF1F2A006E00509EA8FED7AD6E080E2B
:100100001F5CF5E1EC0E1A6E000E1B6EF2EF00F0B4
:10011000000CF86AD09EEA6AE96A810EAF6EA60EFC
:10012000AC6E900EAB6EC180C182C184C196066A6E
:10013000076A096A280E086E0B6A020E0A6E940E90
:100140000C6E000E0D6E0E6A106A140E0F6E126A9F
:10015000010E116EC60E136E000E146E156A176A2C
:100160000A0E166E196A186AEC0E1A6E000E1B6ED5
:10017000056A820ED56E0B0ED76EDC0ED66EF2942B
:10018000820ED56E0B0ED76EDC0ED66EF294D89022
:100190000534006E5EDF026E010E00245ADFEA6E47
:1001A00002C0E9FFEFCF02F0E92AEFCF00F0ECCF79
:1001B00001F0EC2AEFCF03F002E1EC2AED52EC5013
:1001C000015C11E10050035C0EE1ED52ED52EE6A6C
:1001D000EE6A02BE08D0EC52ECCFFAFFED52EFCF40
:1001E000E8FFF96E0001052A030E055CD0E1056AFF
:1001F000D650D7CF03F0F2B4C5D7FAD7FF0E056EAD
:100200001C6A1C5031DF1C2A006E00509EA8FED7CD
:0A021000AD6E1A0E1C5CF5E1030050
:020000040030CA
:0E00000000220E0E000181000FC00FE00F4025
:00000001FF
;PIC18F452
