:020000040000FA
:10000000BBEF00F0F76A140FF66E000EF72209003E
:10001000F55012005461736B20310A0D0000F76A2D
:100020002E0FF66E000EF7220900F55012005461F3
:10003000736B20332064697361626C652062792080
:100040005461736B20310A0D0000F76A5A0FF66E87
:10005000000EF7220900F55012005461736B203234
:100060000A0D0000F76A740FF66E000EF722090001
:10007000F55012005461736B203320646973616220
:100080006C65206279205461736B20320A0D000088
:10009000F76AA00FF66E000EF7220900F550120065
:1000A0005461736B20330A0D0000F76ABA0FF66EC5
:1000B000000EF7220900F550120007000E0015008F
:1000C0001C6A1C509FDF1C2A006E00509EA8FED7A1
:1000D000AD6E080E1C5CF5E1065003080DE11C6ACC
:1000E0001C509DDF1C2A006E00509EA8FED7AD6EEE
:1000F0001A0E1C5CF5E1158EC00E0C6E000E0D6E16
:1001000024EF01F0000C1D6A1D509FDF1D2A006EB8
:1001100000509EA8FED7AD6E080E1D5CF5E1062AC4
:1001200006500A080EE1066A1D6A1D509BDF1D2A53
:10013000006E00509EA8FED7AD6E1A0E1D5CF5E154
:10014000158E060E136E010E146E24EF01F0000CD6
:100150001E6A1E509DDF1E2A006E00509EA8FED70C
:10016000AD6E080E1E5CF5E1500E1A6E010E1B6E90
:1001700024EF01F0000CF86AD09EEA6AE96A810E69
:10018000AF6EA60EAC6E900EAB6EC180C182C18404
:10019000C196066A076A096A280E086E0B6A020E83
:1001A0000A6EC00E0C6E000E0D6E0E6A106A140EF2
:1001B0000F6E126A010E116E060E136E010E146E92
:1001C000156A176A0A0E166E196A186A500E1A6EA8
:1001D000010E1B6E056A820ED56E0B0ED76EDC0EFD
:1001E000D66EF294820ED56E0B0ED76EDC0ED66EE6
:1001F000F294D8900534006E58DF026E010E002490
:1002000054DFEA6E02C0E9FFEFCF02F0E92AEFCF38
:1002100000F0ECCF01F0EC2AEFCF03F002E1EC2A82
:10022000ED52EC50015C11E10050035C0EE1ED5227
:10023000ED52EE6AEE6A02BE08D0EC52ECCFFAFF45
:10024000ED52EFCFE8FFF96E0001052A030E055CC1
:10025000D0E1056AD650D7CF03F0F2B4C5D7FAD7AC
:06026000FF0E056E030015
:020000040030CA
:0E00000000220E0E000181000FC00FE00F4025
:00000001FF
;PIC18F452
