:020000040000FA
:1000000078EF01F0F76A140FF66E000EF722090080
:10001000F550120054656D706572617475726120DF
:100020006D6564696461203D2025322E326C752037
:1000300043656C73697573200A0D0000F76A4C0FF5
:10004000F66E000EF7220900F55012000D001400A4
:100050001B00959E8C7E520E126E000E136EF9EFF1
:1000600001F0000C2E6A2F6A010E306EDA6AD96A2E
:10007000336A260E326EEA6A2A0EE96E33C0E2FF58
:1000800032C0E1FF30C031F0D890E550EE02F350BD
:100090002E22F4502F22312EF7D72EC0DEFF2FC094
:1000A0002EF02F6AD8B02F2A322AD8B4332A302A19
:1000B00030500508E0E1C2EF00F0006A016A026A10
:1000C000036A496A4A6A4B6A4C6A485047104610AC
:1000D00045102CE0200E4D6ED89041364236433606
:1000E000443649364A364B364C3648504C5C08E16B
:1000F00047504B5C05E146504A5C02E14550495C83
:100100000FE34550495E4650D8A0463C4A5E4750F2
:10011000D8A0473C4B5E4850D8A0483C4C5ED880A5
:1001200000360136023603364D2ED6D7EA6A490E1E
:10013000E96E000C3C0E196E010E1A6E0650000896
:1001400003E31480FAEF01F006061490C282C2B2F3
:10015000FED7C3CF07F0C4CF08F0256A246A08C0D1
:1001600023F007C022F025C029F024C028F008C0E1
:1001700027F007C026F02D6A2C6A010E2B6EF40EB4
:100180002A6E70D703C00CF002C00BF001C00AF059
:1001900000C009F00CC044F00BC043F00AC042F0AC
:1001A00009C041F0486A476A030E466EFF0E456E6D
:1001B00084DF03C00CF002C00BF001C00AF000C0E5
:1001C00009F0062A340E196E010E1A6EF9EF01F0CD
:1001D000000CE950396E3B0E406E9A0E3F6ECA0E0F
:1001E0003E6E3D6A0A0E3B6E38C044F037C043F0A5
:1001F00036C042F035C041F040C048F03FC047F043
:100200003EC046F03DC045F058DF0150EFCF35F01D
:10021000ECCF36F0ECCF37F0ECCF38F000520FE1F6
:100220003B50010A0CE039500BE00F0B3B5C01E046
:100230000DE239BE0BD039BC03D0200E02D0396A92
:10024000300E002600509EA8FED7AD6E40C044F090
:100250003FC043F03EC042F03DC041F0486A476AAB
:10026000466A0A0E456E29DF03C040F002C03FF027
:1002700001C03EF000C03DF03B2EB6D763EF01F069
:10028000880E206E020E216E0650000803E31B80CC
:10029000FAEF01F006061B90346A3450B3DE342ABC
:1002A000006E00509EA8FED7AD6E150E345CF5E1D1
:1002B000020EE96E0CC038F00BC037F00AC036F001
:1002C00009C035F086D71B0E356E35509BDE352ABA
:1002D000006E00509EA8FED7AD6E260E355CF5E18F
:1002E000062A800E206E020E216EF9EF01F0000C3E
:1002F000F86AD09EEA6AE96AB886220EAF6E080EE6
:10030000B06EA60EAC6E900EAB6EC150C00B0F0956
:10031000C16E070EB46E000E956EFF0E926EC15048
:10032000C00BC16EC090C082C094C08EC280000E4F
:10033000016EC250C30B0110C26E010E066E0D6A33
:100340000F6A020E0E6E116A106A520E126E000EC5
:10035000136E146A166A140E156E186A010E176E63
:10036000340E196E010E1A6E1B6A1D6A140E1C6E75
:100370001F6A030E1E6E800E206E020E216E056A2D
:10038000820ED56E0B0ED76EDC0ED66EF294820EF8
:10039000D56E0B0ED76EDC0ED66EF294D890053467
:1003A000006E4CDE026E010E002448DEEA6E02C0D2
:1003B000E9FFEFCF02F0E92AEFCF00F0ECCF01F038
:1003C000EC2AEFCF03F002E1EC2AED52EC50015C95
:1003D00011E10050035C0EE1ED52ED52EE6AEE6A5F
:1003E00002BE08D0EC52ECCFFAFFED52EFCFE8FF9F
:1003F000F96E0001052A030E055CD0E1056AD650AE
:10040000D7CF03F0F2B4C5D7FAD7FF0E056E0300BD
:020000040030CA
:0E000000240C1E1E008101000FC00FE00F40F7
:00000001FF
;PIC18F4550
