:020000040000FA
:1000000032EF00F0F76A140FF66E000EF7220900C7
:10001000F550120006000D0014001B0095908C7026
:100020001C0E0B6E000E0C6EB4EF00F0000C9592DF
:100030008C722E0E126E000E136EB4EF00F0000CD8
:1000400095948C74400E196E000E1A6EB4EF00F089
:10005000000C95968C76520E206E000E216EB4EF39
:1000600000F0000CF86AD09EEA6AE96AB886080EC9
:10007000AF6E020EB06EA60EAC6E900EAB6EC1509F
:10008000C00B0F09C16E070EB46E000E956E9598E9
:100090008C88959A8C8A959C8C8C959E8C8E066A01
:1000A000086A190E076E0A6A096A1C0E0B6E000EAA
:1000B0000C6E0D6A0F6A320E0E6E116A010E106E12
:1000C0002E0E126E000E136E146A166A640E156EF2
:1000D000186A020E176E400E196E000E1A6E1B6A19
:1000E0001D6AC80E1C6E1F6A030E1E6E520E206E15
:1000F000000E216E056A880ED56E9E0ED76E580EC4
:10010000D66EF294880ED56E3C0ED76EB00ED66EBB
:10011000F294D8900534006E75DF026E010E002453
:1001200071DFEA6E02C0E9FFEFCF02F0E92AEFCFFC
:1001300000F0ECCF01F0EC2AEFCF03F002E1EC2A63
:10014000ED52EC50015C11E10050035C0EE1ED5208
:10015000ED52EE6AEE6A02BE08D0EC52ECCFFAFF26
:10016000ED52EFCFE8FFF96E0001052A040E055CA1
:10017000D0E1056AD650D7CF03F0F2B4C5D7FAD78D
:06018000FF0E056EFFD723
:020000040030CA
:0E000000000C191E008300000FC00FE00F401F
:00000001FF
;PIC18F4550
