:020000040000FA
:1000000058EF00F0F76A140FF66E000EF7220900A1
:10001000F550120007000E001500929A897A1A0E08
:100020000C6E000E0D6ECAEF00F0000C062A9480D4
:1000300082B013D01E0E1C24E96EEA6AD8B0EA2AF8
:100040001C28010B006E1D50005C02E1000E05D063
:1000500000C01CF006C0EFFF010E2C0E136E000E48
:10006000146ECAEF00F0000C1D501C5C03E31D5021
:100070001C5C04D0020ED8801D541C24000A11E020
:100080001D501C5CFDE01E0E1D24E96EEA6AD8B00E
:10009000EA2AEFCF01F01D2A010E1D16956A01C054
:1000A0008CFF680E1A6E000E1B6ECAEF00F0000C7B
:1000B000F86AD09EEA6AE96AB886080EAF6E020E48
:1000C000B06EA60EAC6E900EAB6EC150C00B0F0999
:1000D000C16E070EB46E066A000E956E076A096A55
:1000E000140E086E0B6A0A6A1A0E0C6E000E0D6E64
:1000F0000E6A106A140E0F6E126A010E116E2C0E2B
:10010000136E000E146E156A176A320E166E196A97
:10011000020E186E1C6A1D6A680E1A6E000E1B6EA7
:10012000056A880ED56E9E0ED76E580ED66EF29466
:10013000880ED56E3C0ED76EB00ED66EF294D89067
:100140000534006E5FDF026E010E00245BDFEA6E95
:1001500002C0E9FFEFCF02F0E92AEFCF00F0ECCFC9
:1001600001F0EC2AEFCF03F002E1EC2AED52EC5063
:10017000015C11E10050035C0EE1ED52ED52EE6ABC
:10018000EE6A02BE08D0EC52ECCFFAFFED52EFCF90
:10019000E8FFF96E0001052A030E055CD0E1056A4F
:1001A000D650D7CF03F0F2B4C5D7FAD7FF0E056EFD
:0201B000FFD777
:020000040030CA
:0E000000000C191E008300000FC00FE00F401F
:00000001FF
;PIC18F4550
